{
  "contractName": "BuddyNFT",
  "abi": [
    {
      "inputs": [],
      "stateMutability": "nonpayable",
      "type": "constructor"
    },
    {
      "anonymous": false,
      "inputs": [
        {
          "indexed": true,
          "internalType": "address",
          "name": "owner",
          "type": "address"
        },
        {
          "indexed": true,
          "internalType": "address",
          "name": "approved",
          "type": "address"
        },
        {
          "indexed": true,
          "internalType": "uint256",
          "name": "tokenId",
          "type": "uint256"
        }
      ],
      "name": "Approval",
      "type": "event"
    },
    {
      "anonymous": false,
      "inputs": [
        {
          "indexed": true,
          "internalType": "address",
          "name": "owner",
          "type": "address"
        },
        {
          "indexed": true,
          "internalType": "address",
          "name": "operator",
          "type": "address"
        },
        {
          "indexed": false,
          "internalType": "bool",
          "name": "approved",
          "type": "bool"
        }
      ],
      "name": "ApprovalForAll",
      "type": "event"
    },
    {
      "anonymous": false,
      "inputs": [
        {
          "indexed": true,
          "internalType": "address",
          "name": "from",
          "type": "address"
        },
        {
          "indexed": true,
          "internalType": "address",
          "name": "to",
          "type": "address"
        },
        {
          "indexed": true,
          "internalType": "uint256",
          "name": "tokenId",
          "type": "uint256"
        }
      ],
      "name": "Transfer",
      "type": "event"
    },
    {
      "inputs": [
        {
          "internalType": "address",
          "name": "to",
          "type": "address"
        },
        {
          "internalType": "uint256",
          "name": "tokenId",
          "type": "uint256"
        }
      ],
      "name": "approve",
      "outputs": [],
      "stateMutability": "nonpayable",
      "type": "function"
    },
    {
      "inputs": [
        {
          "internalType": "address",
          "name": "owner",
          "type": "address"
        }
      ],
      "name": "balanceOf",
      "outputs": [
        {
          "internalType": "uint256",
          "name": "",
          "type": "uint256"
        }
      ],
      "stateMutability": "view",
      "type": "function",
      "constant": true
    },
    {
      "inputs": [
        {
          "internalType": "uint256",
          "name": "tokenId",
          "type": "uint256"
        }
      ],
      "name": "getApproved",
      "outputs": [
        {
          "internalType": "address",
          "name": "",
          "type": "address"
        }
      ],
      "stateMutability": "view",
      "type": "function",
      "constant": true
    },
    {
      "inputs": [
        {
          "internalType": "address",
          "name": "owner",
          "type": "address"
        },
        {
          "internalType": "address",
          "name": "operator",
          "type": "address"
        }
      ],
      "name": "isApprovedForAll",
      "outputs": [
        {
          "internalType": "bool",
          "name": "",
          "type": "bool"
        }
      ],
      "stateMutability": "view",
      "type": "function",
      "constant": true
    },
    {
      "inputs": [],
      "name": "name",
      "outputs": [
        {
          "internalType": "string",
          "name": "",
          "type": "string"
        }
      ],
      "stateMutability": "view",
      "type": "function",
      "constant": true
    },
    {
      "inputs": [
        {
          "internalType": "uint256",
          "name": "tokenId",
          "type": "uint256"
        }
      ],
      "name": "ownerOf",
      "outputs": [
        {
          "internalType": "address",
          "name": "",
          "type": "address"
        }
      ],
      "stateMutability": "view",
      "type": "function",
      "constant": true
    },
    {
      "inputs": [
        {
          "internalType": "address",
          "name": "",
          "type": "address"
        },
        {
          "internalType": "uint256",
          "name": "",
          "type": "uint256"
        }
      ],
      "name": "ownershipRecord",
      "outputs": [
        {
          "internalType": "uint256",
          "name": "tokenId",
          "type": "uint256"
        },
        {
          "internalType": "uint256",
          "name": "timeStamp",
          "type": "uint256"
        },
        {
          "internalType": "string",
          "name": "tokenURI",
          "type": "string"
        }
      ],
      "stateMutability": "view",
      "type": "function",
      "constant": true
    },
    {
      "inputs": [
        {
          "internalType": "address",
          "name": "from",
          "type": "address"
        },
        {
          "internalType": "address",
          "name": "to",
          "type": "address"
        },
        {
          "internalType": "uint256",
          "name": "tokenId",
          "type": "uint256"
        }
      ],
      "name": "safeTransferFrom",
      "outputs": [],
      "stateMutability": "nonpayable",
      "type": "function"
    },
    {
      "inputs": [
        {
          "internalType": "address",
          "name": "from",
          "type": "address"
        },
        {
          "internalType": "address",
          "name": "to",
          "type": "address"
        },
        {
          "internalType": "uint256",
          "name": "tokenId",
          "type": "uint256"
        },
        {
          "internalType": "bytes",
          "name": "data",
          "type": "bytes"
        }
      ],
      "name": "safeTransferFrom",
      "outputs": [],
      "stateMutability": "nonpayable",
      "type": "function"
    },
    {
      "inputs": [
        {
          "internalType": "address",
          "name": "operator",
          "type": "address"
        },
        {
          "internalType": "bool",
          "name": "approved",
          "type": "bool"
        }
      ],
      "name": "setApprovalForAll",
      "outputs": [],
      "stateMutability": "nonpayable",
      "type": "function"
    },
    {
      "inputs": [
        {
          "internalType": "bytes4",
          "name": "interfaceId",
          "type": "bytes4"
        }
      ],
      "name": "supportsInterface",
      "outputs": [
        {
          "internalType": "bool",
          "name": "",
          "type": "bool"
        }
      ],
      "stateMutability": "view",
      "type": "function",
      "constant": true
    },
    {
      "inputs": [],
      "name": "symbol",
      "outputs": [
        {
          "internalType": "string",
          "name": "",
          "type": "string"
        }
      ],
      "stateMutability": "view",
      "type": "function",
      "constant": true
    },
    {
      "inputs": [
        {
          "internalType": "uint256",
          "name": "tokenId",
          "type": "uint256"
        }
      ],
      "name": "tokenURI",
      "outputs": [
        {
          "internalType": "string",
          "name": "",
          "type": "string"
        }
      ],
      "stateMutability": "view",
      "type": "function",
      "constant": true
    },
    {
      "inputs": [
        {
          "internalType": "address",
          "name": "from",
          "type": "address"
        },
        {
          "internalType": "address",
          "name": "to",
          "type": "address"
        },
        {
          "internalType": "uint256",
          "name": "tokenId",
          "type": "uint256"
        }
      ],
      "name": "transferFrom",
      "outputs": [],
      "stateMutability": "nonpayable",
      "type": "function"
    },
    {
      "inputs": [
        {
          "internalType": "address",
          "name": "_ownerOfToken",
          "type": "address"
        },
        {
          "internalType": "string",
          "name": "_tokenURI",
          "type": "string"
        }
      ],
      "name": "mintToken",
      "outputs": [],
      "stateMutability": "nonpayable",
      "type": "function"
    }
  ],
  "bytecode": "0x60806040523480156200001157600080fd5b506040518060400160405280600881526020017f42756464794e46540000000000000000000000000000000000000000000000008152506040518060400160405280600381526020017f4244590000000000000000000000000000000000000000000000000000000000815250816000908051906020019062000096929190620000b8565b508060019080519060200190620000af929190620000b8565b505050620001cc565b828054620000c69062000197565b90600052602060002090601f016020900481019282620000ea576000855562000136565b82601f106200010557805160ff191683800117855562000136565b8280016001018555821562000136579182015b828111156200013557825182559160200191906001019062000118565b5b50905062000145919062000149565b5090565b5b80821115620001645760008160009055506001016200014a565b5090565b7f4e487b7100000000000000000000000000000000000000000000000000000000600052602260045260246000fd5b60006002820490506001821680620001b057607f821691505b602082108103620001c657620001c562000168565b5b50919050565b6128ab80620001dc6000396000f3fe608060405234801561001057600080fd5b50600436106100f55760003560e01c806342842e0e11610097578063a22cb46511610066578063a22cb46514610298578063b88d4fde146102b4578063c87b56dd146102d0578063e985e9c514610300576100f5565b806342842e0e146101fe5780636352211e1461021a57806370a082311461024a57806395d89b411461027a576100f5565b8063095ea7b3116100d3578063095ea7b31461017857806323b872dd1461019457806337746cc5146101b05780633d02d0c9146101e2576100f5565b806301ffc9a7146100fa57806306fdde031461012a578063081812fc14610148575b600080fd5b610114600480360381019061010f91906118d1565b610330565b6040516101219190611919565b60405180910390f35b610132610412565b60405161013f91906119cd565b60405180910390f35b610162600480360381019061015d9190611a25565b6104a4565b60405161016f9190611a93565b60405180910390f35b610192600480360381019061018d9190611ada565b6104ea565b005b6101ae60048036038101906101a99190611b1a565b610601565b005b6101ca60048036038101906101c59190611ada565b610661565b6040516101d993929190611b7c565b60405180910390f35b6101fc60048036038101906101f79190611cef565b610730565b005b61021860048036038101906102139190611b1a565b610812565b005b610234600480360381019061022f9190611a25565b610832565b6040516102419190611a93565b60405180910390f35b610264600480360381019061025f9190611d4b565b6108e3565b6040516102719190611d78565b60405180910390f35b61028261099a565b60405161028f91906119cd565b60405180910390f35b6102b260048036038101906102ad9190611dbf565b610a2c565b005b6102ce60048036038101906102c99190611ea0565b610a42565b005b6102ea60048036038101906102e59190611a25565b610aa4565b6040516102f791906119cd565b60405180910390f35b61031a60048036038101906103159190611f23565b610b0c565b6040516103279190611919565b60405180910390f35b60007f80ac58cd000000000000000000000000000000000000000000000000000000007bffffffffffffffffffffffffffffffffffffffffffffffffffffffff1916827bffffffffffffffffffffffffffffffffffffffffffffffffffffffff191614806103fb57507f5b5e139f000000000000000000000000000000000000000000000000000000007bffffffffffffffffffffffffffffffffffffffffffffffffffffffff1916827bffffffffffffffffffffffffffffffffffffffffffffffffffffffff1916145b8061040b575061040a82610ba0565b5b9050919050565b60606000805461042190611f92565b80601f016020809104026020016040519081016040528092919081815260200182805461044d90611f92565b801561049a5780601f1061046f5761010080835404028352916020019161049a565b820191906000526020600020905b81548152906001019060200180831161047d57829003601f168201915b5050505050905090565b60006104af82610c0a565b6004600083815260200190815260200160002060009054906101000a900473ffffffffffffffffffffffffffffffffffffffff169050919050565b60006104f582610832565b90508073ffffffffffffffffffffffffffffffffffffffff168373ffffffffffffffffffffffffffffffffffffffff1603610565576040517f08c379a000000000000000000000000000000000000000000000000000000000815260040161055c90612035565b60405180910390fd5b8073ffffffffffffffffffffffffffffffffffffffff16610584610c55565b73ffffffffffffffffffffffffffffffffffffffff1614806105b357506105b2816105ad610c55565b610b0c565b5b6105f2576040517f08c379a00000000000000000000000000000000000000000000000000000000081526004016105e9906120c7565b60405180910390fd5b6105fc8383610c5d565b505050565b61061261060c610c55565b82610d16565b610651576040517f08c379a000000000000000000000000000000000000000000000000000000000815260040161064890612159565b60405180910390fd5b61065c838383610dab565b505050565b6007602052816000526040600020818154811061067d57600080fd5b9060005260206000209060030201600091509150508060000154908060010154908060020180546106ad90611f92565b80601f01602080910402602001604051908101604052809291908181526020018280546106d990611f92565b80156107265780601f106106fb57610100808354040283529160200191610726565b820191906000526020600020905b81548152906001019060200180831161070957829003601f168201915b5050505050905083565b61073c82600654611011565b600760008373ffffffffffffffffffffffffffffffffffffffff1673ffffffffffffffffffffffffffffffffffffffff16815260200190815260200160002060405180606001604052806006548152602001428152602001838152509080600181540180825580915050600190039060005260206000209060030201600090919091909150600082015181600001556020820151816001015560408201518160020190805190602001906107f19291906117c2565b50505060016006600082825461080791906121a8565b925050819055505050565b61082d83838360405180602001604052806000815250610a42565b505050565b6000806002600084815260200190815260200160002060009054906101000a900473ffffffffffffffffffffffffffffffffffffffff169050600073ffffffffffffffffffffffffffffffffffffffff168173ffffffffffffffffffffffffffffffffffffffff16036108da576040517f08c379a00000000000000000000000000000000000000000000000000000000081526004016108d19061224a565b60405180910390fd5b80915050919050565b60008073ffffffffffffffffffffffffffffffffffffffff168273ffffffffffffffffffffffffffffffffffffffff1603610953576040517f08c379a000000000000000000000000000000000000000000000000000000000815260040161094a906122dc565b60405180910390fd5b600360008373ffffffffffffffffffffffffffffffffffffffff1673ffffffffffffffffffffffffffffffffffffffff168152602001908152602001600020549050919050565b6060600180546109a990611f92565b80601f01602080910402602001604051908101604052809291908181526020018280546109d590611f92565b8015610a225780601f106109f757610100808354040283529160200191610a22565b820191906000526020600020905b815481529060010190602001808311610a0557829003601f168201915b5050505050905090565b610a3e610a37610c55565b838361102f565b5050565b610a53610a4d610c55565b83610d16565b610a92576040517f08c379a0000000000000000000000000000000000000000000000000000000008152600401610a8990612159565b60405180910390fd5b610a9e8484848461119b565b50505050565b6060610aaf82610c0a565b6000610ab96111f7565b90506000815111610ad95760405180602001604052806000815250610b04565b80610ae38461120e565b604051602001610af4929190612338565b6040516020818303038152906040525b915050919050565b6000600560008473ffffffffffffffffffffffffffffffffffffffff1673ffffffffffffffffffffffffffffffffffffffff16815260200190815260200160002060008373ffffffffffffffffffffffffffffffffffffffff1673ffffffffffffffffffffffffffffffffffffffff16815260200190815260200160002060009054906101000a900460ff16905092915050565b60007f01ffc9a7000000000000000000000000000000000000000000000000000000007bffffffffffffffffffffffffffffffffffffffffffffffffffffffff1916827bffffffffffffffffffffffffffffffffffffffffffffffffffffffff1916149050919050565b610c138161136e565b610c52576040517f08c379a0000000000000000000000000000000000000000000000000000000008152600401610c499061224a565b60405180910390fd5b50565b600033905090565b816004600083815260200190815260200160002060006101000a81548173ffffffffffffffffffffffffffffffffffffffff021916908373ffffffffffffffffffffffffffffffffffffffff160217905550808273ffffffffffffffffffffffffffffffffffffffff16610cd083610832565b73ffffffffffffffffffffffffffffffffffffffff167f8c5be1e5ebec7d5bd14f71427d1e84f3dd0314c0f7b2291e5b200ac8c7c3b92560405160405180910390a45050565b600080610d2283610832565b90508073ffffffffffffffffffffffffffffffffffffffff168473ffffffffffffffffffffffffffffffffffffffff161480610d645750610d638185610b0c565b5b80610da257508373ffffffffffffffffffffffffffffffffffffffff16610d8a846104a4565b73ffffffffffffffffffffffffffffffffffffffff16145b91505092915050565b8273ffffffffffffffffffffffffffffffffffffffff16610dcb82610832565b73ffffffffffffffffffffffffffffffffffffffff1614610e21576040517f08c379a0000000000000000000000000000000000000000000000000000000008152600401610e18906123ce565b60405180910390fd5b600073ffffffffffffffffffffffffffffffffffffffff168273ffffffffffffffffffffffffffffffffffffffff1603610e90576040517f08c379a0000000000000000000000000000000000000000000000000000000008152600401610e8790612460565b60405180910390fd5b610e9b8383836113da565b610ea6600082610c5d565b6001600360008573ffffffffffffffffffffffffffffffffffffffff1673ffffffffffffffffffffffffffffffffffffffff1681526020019081526020016000206000828254610ef69190612480565b925050819055506001600360008473ffffffffffffffffffffffffffffffffffffffff1673ffffffffffffffffffffffffffffffffffffffff1681526020019081526020016000206000828254610f4d91906121a8565b92505081905550816002600083815260200190815260200160002060006101000a81548173ffffffffffffffffffffffffffffffffffffffff021916908373ffffffffffffffffffffffffffffffffffffffff160217905550808273ffffffffffffffffffffffffffffffffffffffff168473ffffffffffffffffffffffffffffffffffffffff167fddf252ad1be2c89b69c2b068fc378daa952ba7f163c4a11628f55a4df523b3ef60405160405180910390a461100c8383836113df565b505050565b61102b8282604051806020016040528060008152506113e4565b5050565b8173ffffffffffffffffffffffffffffffffffffffff168373ffffffffffffffffffffffffffffffffffffffff160361109d576040517f08c379a000000000000000000000000000000000000000000000000000000000815260040161109490612500565b60405180910390fd5b80600560008573ffffffffffffffffffffffffffffffffffffffff1673ffffffffffffffffffffffffffffffffffffffff16815260200190815260200160002060008473ffffffffffffffffffffffffffffffffffffffff1673ffffffffffffffffffffffffffffffffffffffff16815260200190815260200160002060006101000a81548160ff0219169083151502179055508173ffffffffffffffffffffffffffffffffffffffff168373ffffffffffffffffffffffffffffffffffffffff167f17307eab39ab6107e8899845ad3d59bd9653f200f220920489ca2b5937696c318360405161118e9190611919565b60405180910390a3505050565b6111a6848484610dab565b6111b28484848461143f565b6111f1576040517f08c379a00000000000000000000000000000000000000000000000000000000081526004016111e890612592565b60405180910390fd5b50505050565b606060405180602001604052806000815250905090565b606060008203611255576040518060400160405280600181526020017f30000000000000000000000000000000000000000000000000000000000000008152509050611369565b600082905060005b60008214611287578080611270906125b2565b915050600a826112809190612629565b915061125d565b60008167ffffffffffffffff8111156112a3576112a2611bc4565b5b6040519080825280601f01601f1916602001820160405280156112d55781602001600182028036833780820191505090505b5090505b60008514611362576001826112ee9190612480565b9150600a856112fd919061265a565b603061130991906121a8565b60f81b81838151811061131f5761131e61268b565b5b60200101907effffffffffffffffffffffffffffffffffffffffffffffffffffffffffffff1916908160001a905350600a8561135b9190612629565b94506112d9565b8093505050505b919050565b60008073ffffffffffffffffffffffffffffffffffffffff166002600084815260200190815260200160002060009054906101000a900473ffffffffffffffffffffffffffffffffffffffff1673ffffffffffffffffffffffffffffffffffffffff1614159050919050565b505050565b505050565b6113ee83836115c6565b6113fb600084848461143f565b61143a576040517f08c379a000000000000000000000000000000000000000000000000000000000815260040161143190612592565b60405180910390fd5b505050565b60006114608473ffffffffffffffffffffffffffffffffffffffff1661179f565b156115b9578373ffffffffffffffffffffffffffffffffffffffff1663150b7a02611489610c55565b8786866040518563ffffffff1660e01b81526004016114ab949392919061270f565b6020604051808303816000875af19250505080156114e757506040513d601f19601f820116820180604052508101906114e49190612770565b60015b611569573d8060008114611517576040519150601f19603f3d011682016040523d82523d6000602084013e61151c565b606091505b506000815103611561576040517f08c379a000000000000000000000000000000000000000000000000000000000815260040161155890612592565b60405180910390fd5b805181602001fd5b63150b7a0260e01b7bffffffffffffffffffffffffffffffffffffffffffffffffffffffff1916817bffffffffffffffffffffffffffffffffffffffffffffffffffffffff1916149150506115be565b600190505b949350505050565b600073ffffffffffffffffffffffffffffffffffffffff168273ffffffffffffffffffffffffffffffffffffffff1603611635576040517f08c379a000000000000000000000000000000000000000000000000000000000815260040161162c906127e9565b60405180910390fd5b61163e8161136e565b1561167e576040517f08c379a000000000000000000000000000000000000000000000000000000000815260040161167590612855565b60405180910390fd5b61168a600083836113da565b6001600360008473ffffffffffffffffffffffffffffffffffffffff1673ffffffffffffffffffffffffffffffffffffffff16815260200190815260200160002060008282546116da91906121a8565b92505081905550816002600083815260200190815260200160002060006101000a81548173ffffffffffffffffffffffffffffffffffffffff021916908373ffffffffffffffffffffffffffffffffffffffff160217905550808273ffffffffffffffffffffffffffffffffffffffff16600073ffffffffffffffffffffffffffffffffffffffff167fddf252ad1be2c89b69c2b068fc378daa952ba7f163c4a11628f55a4df523b3ef60405160405180910390a461179b600083836113df565b5050565b6000808273ffffffffffffffffffffffffffffffffffffffff163b119050919050565b8280546117ce90611f92565b90600052602060002090601f0160209004810192826117f05760008555611837565b82601f1061180957805160ff1916838001178555611837565b82800160010185558215611837579182015b8281111561183657825182559160200191906001019061181b565b5b5090506118449190611848565b5090565b5b80821115611861576000816000905550600101611849565b5090565b6000604051905090565b600080fd5b600080fd5b60007fffffffff0000000000000000000000000000000000000000000000000000000082169050919050565b6118ae81611879565b81146118b957600080fd5b50565b6000813590506118cb816118a5565b92915050565b6000602082840312156118e7576118e661186f565b5b60006118f5848285016118bc565b91505092915050565b60008115159050919050565b611913816118fe565b82525050565b600060208201905061192e600083018461190a565b92915050565b600081519050919050565b600082825260208201905092915050565b60005b8381101561196e578082015181840152602081019050611953565b8381111561197d576000848401525b50505050565b6000601f19601f8301169050919050565b600061199f82611934565b6119a9818561193f565b93506119b9818560208601611950565b6119c281611983565b840191505092915050565b600060208201905081810360008301526119e78184611994565b905092915050565b6000819050919050565b611a02816119ef565b8114611a0d57600080fd5b50565b600081359050611a1f816119f9565b92915050565b600060208284031215611a3b57611a3a61186f565b5b6000611a4984828501611a10565b91505092915050565b600073ffffffffffffffffffffffffffffffffffffffff82169050919050565b6000611a7d82611a52565b9050919050565b611a8d81611a72565b82525050565b6000602082019050611aa86000830184611a84565b92915050565b611ab781611a72565b8114611ac257600080fd5b50565b600081359050611ad481611aae565b92915050565b60008060408385031215611af157611af061186f565b5b6000611aff85828601611ac5565b9250506020611b1085828601611a10565b9150509250929050565b600080600060608486031215611b3357611b3261186f565b5b6000611b4186828701611ac5565b9350506020611b5286828701611ac5565b9250506040611b6386828701611a10565b9150509250925092565b611b76816119ef565b82525050565b6000606082019050611b916000830186611b6d565b611b9e6020830185611b6d565b8181036040830152611bb08184611994565b9050949350505050565b600080fd5b600080fd5b7f4e487b7100000000000000000000000000000000000000000000000000000000600052604160045260246000fd5b611bfc82611983565b810181811067ffffffffffffffff82111715611c1b57611c1a611bc4565b5b80604052505050565b6000611c2e611865565b9050611c3a8282611bf3565b919050565b600067ffffffffffffffff821115611c5a57611c59611bc4565b5b611c6382611983565b9050602081019050919050565b82818337600083830152505050565b6000611c92611c8d84611c3f565b611c24565b905082815260208101848484011115611cae57611cad611bbf565b5b611cb9848285611c70565b509392505050565b600082601f830112611cd657611cd5611bba565b5b8135611ce6848260208601611c7f565b91505092915050565b60008060408385031215611d0657611d0561186f565b5b6000611d1485828601611ac5565b925050602083013567ffffffffffffffff811115611d3557611d34611874565b5b611d4185828601611cc1565b9150509250929050565b600060208284031215611d6157611d6061186f565b5b6000611d6f84828501611ac5565b91505092915050565b6000602082019050611d8d6000830184611b6d565b92915050565b611d9c816118fe565b8114611da757600080fd5b50565b600081359050611db981611d93565b92915050565b60008060408385031215611dd657611dd561186f565b5b6000611de485828601611ac5565b9250506020611df585828601611daa565b9150509250929050565b600067ffffffffffffffff821115611e1a57611e19611bc4565b5b611e2382611983565b9050602081019050919050565b6000611e43611e3e84611dff565b611c24565b905082815260208101848484011115611e5f57611e5e611bbf565b5b611e6a848285611c70565b509392505050565b600082601f830112611e8757611e86611bba565b5b8135611e97848260208601611e30565b91505092915050565b60008060008060808587031215611eba57611eb961186f565b5b6000611ec887828801611ac5565b9450506020611ed987828801611ac5565b9350506040611eea87828801611a10565b925050606085013567ffffffffffffffff811115611f0b57611f0a611874565b5b611f1787828801611e72565b91505092959194509250565b60008060408385031215611f3a57611f3961186f565b5b6000611f4885828601611ac5565b9250506020611f5985828601611ac5565b9150509250929050565b7f4e487b7100000000000000000000000000000000000000000000000000000000600052602260045260246000fd5b60006002820490506001821680611faa57607f821691505b602082108103611fbd57611fbc611f63565b5b50919050565b7f4552433732313a20617070726f76616c20746f2063757272656e74206f776e6560008201527f7200000000000000000000000000000000000000000000000000000000000000602082015250565b600061201f60218361193f565b915061202a82611fc3565b604082019050919050565b6000602082019050818103600083015261204e81612012565b9050919050565b7f4552433732313a20617070726f76652063616c6c6572206973206e6f7420746f60008201527f6b656e206f776e6572206e6f7220617070726f76656420666f7220616c6c0000602082015250565b60006120b1603e8361193f565b91506120bc82612055565b604082019050919050565b600060208201905081810360008301526120e0816120a4565b9050919050565b7f4552433732313a2063616c6c6572206973206e6f7420746f6b656e206f776e6560008201527f72206e6f7220617070726f766564000000000000000000000000000000000000602082015250565b6000612143602e8361193f565b915061214e826120e7565b604082019050919050565b6000602082019050818103600083015261217281612136565b9050919050565b7f4e487b7100000000000000000000000000000000000000000000000000000000600052601160045260246000fd5b60006121b3826119ef565b91506121be836119ef565b9250827fffffffffffffffffffffffffffffffffffffffffffffffffffffffffffffffff038211156121f3576121f2612179565b5b828201905092915050565b7f4552433732313a20696e76616c696420746f6b656e2049440000000000000000600082015250565b600061223460188361193f565b915061223f826121fe565b602082019050919050565b6000602082019050818103600083015261226381612227565b9050919050565b7f4552433732313a2061646472657373207a65726f206973206e6f74206120766160008201527f6c6964206f776e65720000000000000000000000000000000000000000000000602082015250565b60006122c660298361193f565b91506122d18261226a565b604082019050919050565b600060208201905081810360008301526122f5816122b9565b9050919050565b600081905092915050565b600061231282611934565b61231c81856122fc565b935061232c818560208601611950565b80840191505092915050565b60006123448285612307565b91506123508284612307565b91508190509392505050565b7f4552433732313a207472616e736665722066726f6d20696e636f72726563742060008201527f6f776e6572000000000000000000000000000000000000000000000000000000602082015250565b60006123b860258361193f565b91506123c38261235c565b604082019050919050565b600060208201905081810360008301526123e7816123ab565b9050919050565b7f4552433732313a207472616e7366657220746f20746865207a65726f2061646460008201527f7265737300000000000000000000000000000000000000000000000000000000602082015250565b600061244a60248361193f565b9150612455826123ee565b604082019050919050565b600060208201905081810360008301526124798161243d565b9050919050565b600061248b826119ef565b9150612496836119ef565b9250828210156124a9576124a8612179565b5b828203905092915050565b7f4552433732313a20617070726f766520746f2063616c6c657200000000000000600082015250565b60006124ea60198361193f565b91506124f5826124b4565b602082019050919050565b60006020820190508181036000830152612519816124dd565b9050919050565b7f4552433732313a207472616e7366657220746f206e6f6e20455243373231526560008201527f63656976657220696d706c656d656e7465720000000000000000000000000000602082015250565b600061257c60328361193f565b915061258782612520565b604082019050919050565b600060208201905081810360008301526125ab8161256f565b9050919050565b60006125bd826119ef565b91507fffffffffffffffffffffffffffffffffffffffffffffffffffffffffffffffff82036125ef576125ee612179565b5b600182019050919050565b7f4e487b7100000000000000000000000000000000000000000000000000000000600052601260045260246000fd5b6000612634826119ef565b915061263f836119ef565b92508261264f5761264e6125fa565b5b828204905092915050565b6000612665826119ef565b9150612670836119ef565b9250826126805761267f6125fa565b5b828206905092915050565b7f4e487b7100000000000000000000000000000000000000000000000000000000600052603260045260246000fd5b600081519050919050565b600082825260208201905092915050565b60006126e1826126ba565b6126eb81856126c5565b93506126fb818560208601611950565b61270481611983565b840191505092915050565b60006080820190506127246000830187611a84565b6127316020830186611a84565b61273e6040830185611b6d565b818103606083015261275081846126d6565b905095945050505050565b60008151905061276a816118a5565b92915050565b6000602082840312156127865761278561186f565b5b60006127948482850161275b565b91505092915050565b7f4552433732313a206d696e7420746f20746865207a65726f2061646472657373600082015250565b60006127d360208361193f565b91506127de8261279d565b602082019050919050565b60006020820190508181036000830152612802816127c6565b9050919050565b7f4552433732313a20746f6b656e20616c7265616479206d696e74656400000000600082015250565b600061283f601c8361193f565b915061284a82612809565b602082019050919050565b6000602082019050818103600083015261286e81612832565b905091905056fea26469706673582212206f4e1242f47748f848fcdc35c619e045118d5bc66de4a3a42ee3ecb6f465118e64736f6c634300080d0033",
  "immutableReferences": {},
  "source": "// contracts/CustomNFT.sol\r\n// SPDX-License-Identifier: MIT\r\npragma solidity ^0.8.0;\r\n\r\nimport \"@openzeppelin/contracts/token/ERC721/ERC721.sol\";\r\n\r\ncontract BuddyNFT is ERC721 {\r\n    struct buddyMetadata {\r\n        uint256 tokenId;\r\n        uint256 timeStamp;\r\n        string tokenURI;\r\n    }\r\n\r\n    uint256 tokenId;\r\n    mapping(address => buddyMetadata[]) public ownershipRecord;\r\n\r\n    constructor() ERC721(\"BuddyNFT\", \"BDY\") {}\r\n\r\n    function mintToken(address _ownerOfToken, string memory _tokenURI) public {\r\n        _safeMint(_ownerOfToken, tokenId);\r\n\r\n        ownershipRecord[_ownerOfToken].push(\r\n            buddyMetadata(tokenId, block.timestamp, _tokenURI)\r\n        );\r\n\r\n        tokenId += 1;\r\n    }\r\n}\r\n",
  "sourcePath": "C:\\Users\\Juan\\Documents\\Proyectos\\walking-buddies\\contracts\\contracts\\BuddyNFT.sol",
  "compiler": {
    "name": "solc",
    "version": "0.8.13+commit.abaa5c0e.Emscripten.clang"
  },
  "schemaVersion": "3.4.10",
  "updatedAt": "2022-10-13T01:32:06.295Z",
  "networkType": "ethereum",
  "devdoc": {
    "kind": "dev",
    "methods": {
      "approve(address,uint256)": {
        "details": "See {IERC721-approve}."
      },
      "balanceOf(address)": {
        "details": "See {IERC721-balanceOf}."
      },
      "getApproved(uint256)": {
        "details": "See {IERC721-getApproved}."
      },
      "isApprovedForAll(address,address)": {
        "details": "See {IERC721-isApprovedForAll}."
      },
      "name()": {
        "details": "See {IERC721Metadata-name}."
      },
      "ownerOf(uint256)": {
        "details": "See {IERC721-ownerOf}."
      },
      "safeTransferFrom(address,address,uint256)": {
        "details": "See {IERC721-safeTransferFrom}."
      },
      "safeTransferFrom(address,address,uint256,bytes)": {
        "details": "See {IERC721-safeTransferFrom}."
      },
      "setApprovalForAll(address,bool)": {
        "details": "See {IERC721-setApprovalForAll}."
      },
      "supportsInterface(bytes4)": {
        "details": "See {IERC165-supportsInterface}."
      },
      "symbol()": {
        "details": "See {IERC721Metadata-symbol}."
      },
      "tokenURI(uint256)": {
        "details": "See {IERC721Metadata-tokenURI}."
      },
      "transferFrom(address,address,uint256)": {
        "details": "See {IERC721-transferFrom}."
      }
    },
    "version": 1
  },
  "userdoc": {
    "kind": "user",
    "methods": {},
    "version": 1
  }
}