{
  "contractName": "BuddyNFT",
  "abi": [
    {
      "inputs": [],
      "stateMutability": "nonpayable",
      "type": "constructor"
    },
    {
      "anonymous": false,
      "inputs": [
        {
          "indexed": true,
          "internalType": "address",
          "name": "owner",
          "type": "address"
        },
        {
          "indexed": true,
          "internalType": "address",
          "name": "approved",
          "type": "address"
        },
        {
          "indexed": true,
          "internalType": "uint256",
          "name": "tokenId",
          "type": "uint256"
        }
      ],
      "name": "Approval",
      "type": "event"
    },
    {
      "anonymous": false,
      "inputs": [
        {
          "indexed": true,
          "internalType": "address",
          "name": "owner",
          "type": "address"
        },
        {
          "indexed": true,
          "internalType": "address",
          "name": "operator",
          "type": "address"
        },
        {
          "indexed": false,
          "internalType": "bool",
          "name": "approved",
          "type": "bool"
        }
      ],
      "name": "ApprovalForAll",
      "type": "event"
    },
    {
      "anonymous": false,
      "inputs": [
        {
          "indexed": true,
          "internalType": "address",
          "name": "from",
          "type": "address"
        },
        {
          "indexed": true,
          "internalType": "address",
          "name": "to",
          "type": "address"
        },
        {
          "indexed": true,
          "internalType": "uint256",
          "name": "tokenId",
          "type": "uint256"
        }
      ],
      "name": "Transfer",
      "type": "event"
    },
    {
      "inputs": [
        {
          "internalType": "address",
          "name": "to",
          "type": "address"
        },
        {
          "internalType": "uint256",
          "name": "tokenId",
          "type": "uint256"
        }
      ],
      "name": "approve",
      "outputs": [],
      "stateMutability": "nonpayable",
      "type": "function"
    },
    {
      "inputs": [
        {
          "internalType": "address",
          "name": "owner",
          "type": "address"
        }
      ],
      "name": "balanceOf",
      "outputs": [
        {
          "internalType": "uint256",
          "name": "",
          "type": "uint256"
        }
      ],
      "stateMutability": "view",
      "type": "function",
      "constant": true
    },
    {
      "inputs": [
        {
          "internalType": "uint256",
          "name": "tokenId",
          "type": "uint256"
        }
      ],
      "name": "getApproved",
      "outputs": [
        {
          "internalType": "address",
          "name": "",
          "type": "address"
        }
      ],
      "stateMutability": "view",
      "type": "function",
      "constant": true
    },
    {
      "inputs": [
        {
          "internalType": "address",
          "name": "owner",
          "type": "address"
        },
        {
          "internalType": "address",
          "name": "operator",
          "type": "address"
        }
      ],
      "name": "isApprovedForAll",
      "outputs": [
        {
          "internalType": "bool",
          "name": "",
          "type": "bool"
        }
      ],
      "stateMutability": "view",
      "type": "function",
      "constant": true
    },
    {
      "inputs": [],
      "name": "name",
      "outputs": [
        {
          "internalType": "string",
          "name": "",
          "type": "string"
        }
      ],
      "stateMutability": "view",
      "type": "function",
      "constant": true
    },
    {
      "inputs": [
        {
          "internalType": "uint256",
          "name": "tokenId",
          "type": "uint256"
        }
      ],
      "name": "ownerOf",
      "outputs": [
        {
          "internalType": "address",
          "name": "",
          "type": "address"
        }
      ],
      "stateMutability": "view",
      "type": "function",
      "constant": true
    },
    {
      "inputs": [
        {
          "internalType": "address",
          "name": "",
          "type": "address"
        },
        {
          "internalType": "uint256",
          "name": "",
          "type": "uint256"
        }
      ],
      "name": "ownershipRecord",
      "outputs": [
        {
          "internalType": "uint256",
          "name": "tokenId",
          "type": "uint256"
        },
        {
          "internalType": "uint256",
          "name": "timeStamp",
          "type": "uint256"
        },
        {
          "internalType": "string",
          "name": "tokenURI",
          "type": "string"
        }
      ],
      "stateMutability": "view",
      "type": "function",
      "constant": true
    },
    {
      "inputs": [
        {
          "internalType": "address",
          "name": "from",
          "type": "address"
        },
        {
          "internalType": "address",
          "name": "to",
          "type": "address"
        },
        {
          "internalType": "uint256",
          "name": "tokenId",
          "type": "uint256"
        }
      ],
      "name": "safeTransferFrom",
      "outputs": [],
      "stateMutability": "nonpayable",
      "type": "function"
    },
    {
      "inputs": [
        {
          "internalType": "address",
          "name": "from",
          "type": "address"
        },
        {
          "internalType": "address",
          "name": "to",
          "type": "address"
        },
        {
          "internalType": "uint256",
          "name": "tokenId",
          "type": "uint256"
        },
        {
          "internalType": "bytes",
          "name": "data",
          "type": "bytes"
        }
      ],
      "name": "safeTransferFrom",
      "outputs": [],
      "stateMutability": "nonpayable",
      "type": "function"
    },
    {
      "inputs": [
        {
          "internalType": "address",
          "name": "operator",
          "type": "address"
        },
        {
          "internalType": "bool",
          "name": "approved",
          "type": "bool"
        }
      ],
      "name": "setApprovalForAll",
      "outputs": [],
      "stateMutability": "nonpayable",
      "type": "function"
    },
    {
      "inputs": [
        {
          "internalType": "bytes4",
          "name": "interfaceId",
          "type": "bytes4"
        }
      ],
      "name": "supportsInterface",
      "outputs": [
        {
          "internalType": "bool",
          "name": "",
          "type": "bool"
        }
      ],
      "stateMutability": "view",
      "type": "function",
      "constant": true
    },
    {
      "inputs": [],
      "name": "symbol",
      "outputs": [
        {
          "internalType": "string",
          "name": "",
          "type": "string"
        }
      ],
      "stateMutability": "view",
      "type": "function",
      "constant": true
    },
    {
      "inputs": [
        {
          "internalType": "uint256",
          "name": "tokenId",
          "type": "uint256"
        }
      ],
      "name": "tokenURI",
      "outputs": [
        {
          "internalType": "string",
          "name": "",
          "type": "string"
        }
      ],
      "stateMutability": "view",
      "type": "function",
      "constant": true
    },
    {
      "inputs": [
        {
          "internalType": "address",
          "name": "from",
          "type": "address"
        },
        {
          "internalType": "address",
          "name": "to",
          "type": "address"
        },
        {
          "internalType": "uint256",
          "name": "tokenId",
          "type": "uint256"
        }
      ],
      "name": "transferFrom",
      "outputs": [],
      "stateMutability": "nonpayable",
      "type": "function"
    },
    {
      "inputs": [
        {
          "internalType": "address",
          "name": "_ownerOfToken",
          "type": "address"
        },
        {
          "internalType": "string",
          "name": "_tokenURI",
          "type": "string"
        }
      ],
      "name": "mintToken",
      "outputs": [],
      "stateMutability": "nonpayable",
      "type": "function"
    },
    {
      "inputs": [
        {
          "internalType": "address",
          "name": "_owner",
          "type": "address"
        }
      ],
      "name": "getBuddiesByAddress",
      "outputs": [
        {
          "components": [
            {
              "internalType": "uint256",
              "name": "tokenId",
              "type": "uint256"
            },
            {
              "internalType": "uint256",
              "name": "timeStamp",
              "type": "uint256"
            },
            {
              "internalType": "string",
              "name": "tokenURI",
              "type": "string"
            }
          ],
          "internalType": "struct BuddyNFT.buddyMetadata[]",
          "name": "",
          "type": "tuple[]"
        }
      ],
      "stateMutability": "view",
      "type": "function",
      "constant": true
    }
  ],
  "bytecode": "0x60806040523480156200001157600080fd5b506040518060400160405280600881526020017f42756464794e46540000000000000000000000000000000000000000000000008152506040518060400160405280600381526020017f4244590000000000000000000000000000000000000000000000000000000000815250816000908051906020019062000096929190620000b8565b508060019080519060200190620000af929190620000b8565b505050620001cc565b828054620000c69062000197565b90600052602060002090601f016020900481019282620000ea576000855562000136565b82601f106200010557805160ff191683800117855562000136565b8280016001018555821562000136579182015b828111156200013557825182559160200191906001019062000118565b5b50905062000145919062000149565b5090565b5b80821115620001645760008160009055506001016200014a565b5090565b7f4e487b7100000000000000000000000000000000000000000000000000000000600052602260045260246000fd5b60006002820490506001821680620001b057607f821691505b602082108103620001c657620001c562000168565b5b50919050565b612bb780620001dc6000396000f3fe608060405234801561001057600080fd5b50600436106101005760003560e01c80636352211e11610097578063a22cb46511610066578063a22cb465146102d3578063b88d4fde146102ef578063c87b56dd1461030b578063e985e9c51461033b57610100565b80636352211e1461022557806370a0823114610255578063856bdcfb1461028557806395d89b41146102b557610100565b806323b872dd116100d357806323b872dd1461019f57806337746cc5146101bb5780633d02d0c9146101ed57806342842e0e1461020957610100565b806301ffc9a71461010557806306fdde0314610135578063081812fc14610153578063095ea7b314610183575b600080fd5b61011f600480360381019061011a9190611a50565b61036b565b60405161012c9190611a98565b60405180910390f35b61013d61044d565b60405161014a9190611b4c565b60405180910390f35b61016d60048036038101906101689190611ba4565b6104df565b60405161017a9190611c12565b60405180910390f35b61019d60048036038101906101989190611c59565b610525565b005b6101b960048036038101906101b49190611c99565b61063c565b005b6101d560048036038101906101d09190611c59565b61069c565b6040516101e493929190611cfb565b60405180910390f35b61020760048036038101906102029190611e6e565b61076b565b005b610223600480360381019061021e9190611c99565b61084d565b005b61023f600480360381019061023a9190611ba4565b61086d565b60405161024c9190611c12565b60405180910390f35b61026f600480360381019061026a9190611eca565b61091e565b60405161027c9190611ef7565b60405180910390f35b61029f600480360381019061029a9190611eca565b6109d5565b6040516102ac919061207d565b60405180910390f35b6102bd610b19565b6040516102ca9190611b4c565b60405180910390f35b6102ed60048036038101906102e891906120cb565b610bab565b005b610309600480360381019061030491906121ac565b610bc1565b005b61032560048036038101906103209190611ba4565b610c23565b6040516103329190611b4c565b60405180910390f35b6103556004803603810190610350919061222f565b610c8b565b6040516103629190611a98565b60405180910390f35b60007f80ac58cd000000000000000000000000000000000000000000000000000000007bffffffffffffffffffffffffffffffffffffffffffffffffffffffff1916827bffffffffffffffffffffffffffffffffffffffffffffffffffffffff1916148061043657507f5b5e139f000000000000000000000000000000000000000000000000000000007bffffffffffffffffffffffffffffffffffffffffffffffffffffffff1916827bffffffffffffffffffffffffffffffffffffffffffffffffffffffff1916145b80610446575061044582610d1f565b5b9050919050565b60606000805461045c9061229e565b80601f01602080910402602001604051908101604052809291908181526020018280546104889061229e565b80156104d55780601f106104aa576101008083540402835291602001916104d5565b820191906000526020600020905b8154815290600101906020018083116104b857829003601f168201915b5050505050905090565b60006104ea82610d89565b6004600083815260200190815260200160002060009054906101000a900473ffffffffffffffffffffffffffffffffffffffff169050919050565b60006105308261086d565b90508073ffffffffffffffffffffffffffffffffffffffff168373ffffffffffffffffffffffffffffffffffffffff16036105a0576040517f08c379a000000000000000000000000000000000000000000000000000000000815260040161059790612341565b60405180910390fd5b8073ffffffffffffffffffffffffffffffffffffffff166105bf610dd4565b73ffffffffffffffffffffffffffffffffffffffff1614806105ee57506105ed816105e8610dd4565b610c8b565b5b61062d576040517f08c379a0000000000000000000000000000000000000000000000000000000008152600401610624906123d3565b60405180910390fd5b6106378383610ddc565b505050565b61064d610647610dd4565b82610e95565b61068c576040517f08c379a000000000000000000000000000000000000000000000000000000000815260040161068390612465565b60405180910390fd5b610697838383610f2a565b505050565b600760205281600052604060002081815481106106b857600080fd5b9060005260206000209060030201600091509150508060000154908060010154908060020180546106e89061229e565b80601f01602080910402602001604051908101604052809291908181526020018280546107149061229e565b80156107615780601f1061073657610100808354040283529160200191610761565b820191906000526020600020905b81548152906001019060200180831161074457829003601f168201915b5050505050905083565b61077782600654611190565b600760008373ffffffffffffffffffffffffffffffffffffffff1673ffffffffffffffffffffffffffffffffffffffff168152602001908152602001600020604051806060016040528060065481526020014281526020018381525090806001815401808255809150506001900390600052602060002090600302016000909190919091506000820151816000015560208201518160010155604082015181600201908051906020019061082c929190611941565b50505060016006600082825461084291906124b4565b925050819055505050565b61086883838360405180602001604052806000815250610bc1565b505050565b6000806002600084815260200190815260200160002060009054906101000a900473ffffffffffffffffffffffffffffffffffffffff169050600073ffffffffffffffffffffffffffffffffffffffff168173ffffffffffffffffffffffffffffffffffffffff1603610915576040517f08c379a000000000000000000000000000000000000000000000000000000000815260040161090c90612556565b60405180910390fd5b80915050919050565b60008073ffffffffffffffffffffffffffffffffffffffff168273ffffffffffffffffffffffffffffffffffffffff160361098e576040517f08c379a0000000000000000000000000000000000000000000000000000000008152600401610985906125e8565b60405180910390fd5b600360008373ffffffffffffffffffffffffffffffffffffffff1673ffffffffffffffffffffffffffffffffffffffff168152602001908152602001600020549050919050565b6060600760008373ffffffffffffffffffffffffffffffffffffffff1673ffffffffffffffffffffffffffffffffffffffff168152602001908152602001600020805480602002602001604051908101604052809291908181526020016000905b82821015610b0e57838290600052602060002090600302016040518060600160405290816000820154815260200160018201548152602001600282018054610a7d9061229e565b80601f0160208091040260200160405190810160405280929190818152602001828054610aa99061229e565b8015610af65780601f10610acb57610100808354040283529160200191610af6565b820191906000526020600020905b815481529060010190602001808311610ad957829003601f168201915b50505050508152505081526020019060010190610a36565b505050509050919050565b606060018054610b289061229e565b80601f0160208091040260200160405190810160405280929190818152602001828054610b549061229e565b8015610ba15780601f10610b7657610100808354040283529160200191610ba1565b820191906000526020600020905b815481529060010190602001808311610b8457829003601f168201915b5050505050905090565b610bbd610bb6610dd4565b83836111ae565b5050565b610bd2610bcc610dd4565b83610e95565b610c11576040517f08c379a0000000000000000000000000000000000000000000000000000000008152600401610c0890612465565b60405180910390fd5b610c1d8484848461131a565b50505050565b6060610c2e82610d89565b6000610c38611376565b90506000815111610c585760405180602001604052806000815250610c83565b80610c628461138d565b604051602001610c73929190612644565b6040516020818303038152906040525b915050919050565b6000600560008473ffffffffffffffffffffffffffffffffffffffff1673ffffffffffffffffffffffffffffffffffffffff16815260200190815260200160002060008373ffffffffffffffffffffffffffffffffffffffff1673ffffffffffffffffffffffffffffffffffffffff16815260200190815260200160002060009054906101000a900460ff16905092915050565b60007f01ffc9a7000000000000000000000000000000000000000000000000000000007bffffffffffffffffffffffffffffffffffffffffffffffffffffffff1916827bffffffffffffffffffffffffffffffffffffffffffffffffffffffff1916149050919050565b610d92816114ed565b610dd1576040517f08c379a0000000000000000000000000000000000000000000000000000000008152600401610dc890612556565b60405180910390fd5b50565b600033905090565b816004600083815260200190815260200160002060006101000a81548173ffffffffffffffffffffffffffffffffffffffff021916908373ffffffffffffffffffffffffffffffffffffffff160217905550808273ffffffffffffffffffffffffffffffffffffffff16610e4f8361086d565b73ffffffffffffffffffffffffffffffffffffffff167f8c5be1e5ebec7d5bd14f71427d1e84f3dd0314c0f7b2291e5b200ac8c7c3b92560405160405180910390a45050565b600080610ea18361086d565b90508073ffffffffffffffffffffffffffffffffffffffff168473ffffffffffffffffffffffffffffffffffffffff161480610ee35750610ee28185610c8b565b5b80610f2157508373ffffffffffffffffffffffffffffffffffffffff16610f09846104df565b73ffffffffffffffffffffffffffffffffffffffff16145b91505092915050565b8273ffffffffffffffffffffffffffffffffffffffff16610f4a8261086d565b73ffffffffffffffffffffffffffffffffffffffff1614610fa0576040517f08c379a0000000000000000000000000000000000000000000000000000000008152600401610f97906126da565b60405180910390fd5b600073ffffffffffffffffffffffffffffffffffffffff168273ffffffffffffffffffffffffffffffffffffffff160361100f576040517f08c379a00000000000000000000000000000000000000000000000000000000081526004016110069061276c565b60405180910390fd5b61101a838383611559565b611025600082610ddc565b6001600360008573ffffffffffffffffffffffffffffffffffffffff1673ffffffffffffffffffffffffffffffffffffffff1681526020019081526020016000206000828254611075919061278c565b925050819055506001600360008473ffffffffffffffffffffffffffffffffffffffff1673ffffffffffffffffffffffffffffffffffffffff16815260200190815260200160002060008282546110cc91906124b4565b92505081905550816002600083815260200190815260200160002060006101000a81548173ffffffffffffffffffffffffffffffffffffffff021916908373ffffffffffffffffffffffffffffffffffffffff160217905550808273ffffffffffffffffffffffffffffffffffffffff168473ffffffffffffffffffffffffffffffffffffffff167fddf252ad1be2c89b69c2b068fc378daa952ba7f163c4a11628f55a4df523b3ef60405160405180910390a461118b83838361155e565b505050565b6111aa828260405180602001604052806000815250611563565b5050565b8173ffffffffffffffffffffffffffffffffffffffff168373ffffffffffffffffffffffffffffffffffffffff160361121c576040517f08c379a00000000000000000000000000000000000000000000000000000000081526004016112139061280c565b60405180910390fd5b80600560008573ffffffffffffffffffffffffffffffffffffffff1673ffffffffffffffffffffffffffffffffffffffff16815260200190815260200160002060008473ffffffffffffffffffffffffffffffffffffffff1673ffffffffffffffffffffffffffffffffffffffff16815260200190815260200160002060006101000a81548160ff0219169083151502179055508173ffffffffffffffffffffffffffffffffffffffff168373ffffffffffffffffffffffffffffffffffffffff167f17307eab39ab6107e8899845ad3d59bd9653f200f220920489ca2b5937696c318360405161130d9190611a98565b60405180910390a3505050565b611325848484610f2a565b611331848484846115be565b611370576040517f08c379a00000000000000000000000000000000000000000000000000000000081526004016113679061289e565b60405180910390fd5b50505050565b606060405180602001604052806000815250905090565b6060600082036113d4576040518060400160405280600181526020017f300000000000000000000000000000000000000000000000000000000000000081525090506114e8565b600082905060005b600082146114065780806113ef906128be565b915050600a826113ff9190612935565b91506113dc565b60008167ffffffffffffffff81111561142257611421611d43565b5b6040519080825280601f01601f1916602001820160405280156114545781602001600182028036833780820191505090505b5090505b600085146114e15760018261146d919061278c565b9150600a8561147c9190612966565b603061148891906124b4565b60f81b81838151811061149e5761149d612997565b5b60200101907effffffffffffffffffffffffffffffffffffffffffffffffffffffffffffff1916908160001a905350600a856114da9190612935565b9450611458565b8093505050505b919050565b60008073ffffffffffffffffffffffffffffffffffffffff166002600084815260200190815260200160002060009054906101000a900473ffffffffffffffffffffffffffffffffffffffff1673ffffffffffffffffffffffffffffffffffffffff1614159050919050565b505050565b505050565b61156d8383611745565b61157a60008484846115be565b6115b9576040517f08c379a00000000000000000000000000000000000000000000000000000000081526004016115b09061289e565b60405180910390fd5b505050565b60006115df8473ffffffffffffffffffffffffffffffffffffffff1661191e565b15611738578373ffffffffffffffffffffffffffffffffffffffff1663150b7a02611608610dd4565b8786866040518563ffffffff1660e01b815260040161162a9493929190612a1b565b6020604051808303816000875af192505050801561166657506040513d601f19601f820116820180604052508101906116639190612a7c565b60015b6116e8573d8060008114611696576040519150601f19603f3d011682016040523d82523d6000602084013e61169b565b606091505b5060008151036116e0576040517f08c379a00000000000000000000000000000000000000000000000000000000081526004016116d79061289e565b60405180910390fd5b805181602001fd5b63150b7a0260e01b7bffffffffffffffffffffffffffffffffffffffffffffffffffffffff1916817bffffffffffffffffffffffffffffffffffffffffffffffffffffffff19161491505061173d565b600190505b949350505050565b600073ffffffffffffffffffffffffffffffffffffffff168273ffffffffffffffffffffffffffffffffffffffff16036117b4576040517f08c379a00000000000000000000000000000000000000000000000000000000081526004016117ab90612af5565b60405180910390fd5b6117bd816114ed565b156117fd576040517f08c379a00000000000000000000000000000000000000000000000000000000081526004016117f490612b61565b60405180910390fd5b61180960008383611559565b6001600360008473ffffffffffffffffffffffffffffffffffffffff1673ffffffffffffffffffffffffffffffffffffffff168152602001908152602001600020600082825461185991906124b4565b92505081905550816002600083815260200190815260200160002060006101000a81548173ffffffffffffffffffffffffffffffffffffffff021916908373ffffffffffffffffffffffffffffffffffffffff160217905550808273ffffffffffffffffffffffffffffffffffffffff16600073ffffffffffffffffffffffffffffffffffffffff167fddf252ad1be2c89b69c2b068fc378daa952ba7f163c4a11628f55a4df523b3ef60405160405180910390a461191a6000838361155e565b5050565b6000808273ffffffffffffffffffffffffffffffffffffffff163b119050919050565b82805461194d9061229e565b90600052602060002090601f01602090048101928261196f57600085556119b6565b82601f1061198857805160ff19168380011785556119b6565b828001600101855582156119b6579182015b828111156119b557825182559160200191906001019061199a565b5b5090506119c391906119c7565b5090565b5b808211156119e05760008160009055506001016119c8565b5090565b6000604051905090565b600080fd5b600080fd5b60007fffffffff0000000000000000000000000000000000000000000000000000000082169050919050565b611a2d816119f8565b8114611a3857600080fd5b50565b600081359050611a4a81611a24565b92915050565b600060208284031215611a6657611a656119ee565b5b6000611a7484828501611a3b565b91505092915050565b60008115159050919050565b611a9281611a7d565b82525050565b6000602082019050611aad6000830184611a89565b92915050565b600081519050919050565b600082825260208201905092915050565b60005b83811015611aed578082015181840152602081019050611ad2565b83811115611afc576000848401525b50505050565b6000601f19601f8301169050919050565b6000611b1e82611ab3565b611b288185611abe565b9350611b38818560208601611acf565b611b4181611b02565b840191505092915050565b60006020820190508181036000830152611b668184611b13565b905092915050565b6000819050919050565b611b8181611b6e565b8114611b8c57600080fd5b50565b600081359050611b9e81611b78565b92915050565b600060208284031215611bba57611bb96119ee565b5b6000611bc884828501611b8f565b91505092915050565b600073ffffffffffffffffffffffffffffffffffffffff82169050919050565b6000611bfc82611bd1565b9050919050565b611c0c81611bf1565b82525050565b6000602082019050611c276000830184611c03565b92915050565b611c3681611bf1565b8114611c4157600080fd5b50565b600081359050611c5381611c2d565b92915050565b60008060408385031215611c7057611c6f6119ee565b5b6000611c7e85828601611c44565b9250506020611c8f85828601611b8f565b9150509250929050565b600080600060608486031215611cb257611cb16119ee565b5b6000611cc086828701611c44565b9350506020611cd186828701611c44565b9250506040611ce286828701611b8f565b9150509250925092565b611cf581611b6e565b82525050565b6000606082019050611d106000830186611cec565b611d1d6020830185611cec565b8181036040830152611d2f8184611b13565b9050949350505050565b600080fd5b600080fd5b7f4e487b7100000000000000000000000000000000000000000000000000000000600052604160045260246000fd5b611d7b82611b02565b810181811067ffffffffffffffff82111715611d9a57611d99611d43565b5b80604052505050565b6000611dad6119e4565b9050611db98282611d72565b919050565b600067ffffffffffffffff821115611dd957611dd8611d43565b5b611de282611b02565b9050602081019050919050565b82818337600083830152505050565b6000611e11611e0c84611dbe565b611da3565b905082815260208101848484011115611e2d57611e2c611d3e565b5b611e38848285611def565b509392505050565b600082601f830112611e5557611e54611d39565b5b8135611e65848260208601611dfe565b91505092915050565b60008060408385031215611e8557611e846119ee565b5b6000611e9385828601611c44565b925050602083013567ffffffffffffffff811115611eb457611eb36119f3565b5b611ec085828601611e40565b9150509250929050565b600060208284031215611ee057611edf6119ee565b5b6000611eee84828501611c44565b91505092915050565b6000602082019050611f0c6000830184611cec565b92915050565b600081519050919050565b600082825260208201905092915050565b6000819050602082019050919050565b611f4781611b6e565b82525050565b600082825260208201905092915050565b6000611f6982611ab3565b611f738185611f4d565b9350611f83818560208601611acf565b611f8c81611b02565b840191505092915050565b6000606083016000830151611faf6000860182611f3e565b506020830151611fc26020860182611f3e565b5060408301518482036040860152611fda8282611f5e565b9150508091505092915050565b6000611ff38383611f97565b905092915050565b6000602082019050919050565b600061201382611f12565b61201d8185611f1d565b93508360208202850161202f85611f2e565b8060005b8581101561206b578484038952815161204c8582611fe7565b945061205783611ffb565b925060208a01995050600181019050612033565b50829750879550505050505092915050565b600060208201905081810360008301526120978184612008565b905092915050565b6120a881611a7d565b81146120b357600080fd5b50565b6000813590506120c58161209f565b92915050565b600080604083850312156120e2576120e16119ee565b5b60006120f085828601611c44565b9250506020612101858286016120b6565b9150509250929050565b600067ffffffffffffffff82111561212657612125611d43565b5b61212f82611b02565b9050602081019050919050565b600061214f61214a8461210b565b611da3565b90508281526020810184848401111561216b5761216a611d3e565b5b612176848285611def565b509392505050565b600082601f83011261219357612192611d39565b5b81356121a384826020860161213c565b91505092915050565b600080600080608085870312156121c6576121c56119ee565b5b60006121d487828801611c44565b94505060206121e587828801611c44565b93505060406121f687828801611b8f565b925050606085013567ffffffffffffffff811115612217576122166119f3565b5b6122238782880161217e565b91505092959194509250565b60008060408385031215612246576122456119ee565b5b600061225485828601611c44565b925050602061226585828601611c44565b9150509250929050565b7f4e487b7100000000000000000000000000000000000000000000000000000000600052602260045260246000fd5b600060028204905060018216806122b657607f821691505b6020821081036122c9576122c861226f565b5b50919050565b7f4552433732313a20617070726f76616c20746f2063757272656e74206f776e6560008201527f7200000000000000000000000000000000000000000000000000000000000000602082015250565b600061232b602183611abe565b9150612336826122cf565b604082019050919050565b6000602082019050818103600083015261235a8161231e565b9050919050565b7f4552433732313a20617070726f76652063616c6c6572206973206e6f7420746f60008201527f6b656e206f776e6572206e6f7220617070726f76656420666f7220616c6c0000602082015250565b60006123bd603e83611abe565b91506123c882612361565b604082019050919050565b600060208201905081810360008301526123ec816123b0565b9050919050565b7f4552433732313a2063616c6c6572206973206e6f7420746f6b656e206f776e6560008201527f72206e6f7220617070726f766564000000000000000000000000000000000000602082015250565b600061244f602e83611abe565b915061245a826123f3565b604082019050919050565b6000602082019050818103600083015261247e81612442565b9050919050565b7f4e487b7100000000000000000000000000000000000000000000000000000000600052601160045260246000fd5b60006124bf82611b6e565b91506124ca83611b6e565b9250827fffffffffffffffffffffffffffffffffffffffffffffffffffffffffffffffff038211156124ff576124fe612485565b5b828201905092915050565b7f4552433732313a20696e76616c696420746f6b656e2049440000000000000000600082015250565b6000612540601883611abe565b915061254b8261250a565b602082019050919050565b6000602082019050818103600083015261256f81612533565b9050919050565b7f4552433732313a2061646472657373207a65726f206973206e6f74206120766160008201527f6c6964206f776e65720000000000000000000000000000000000000000000000602082015250565b60006125d2602983611abe565b91506125dd82612576565b604082019050919050565b60006020820190508181036000830152612601816125c5565b9050919050565b600081905092915050565b600061261e82611ab3565b6126288185612608565b9350612638818560208601611acf565b80840191505092915050565b60006126508285612613565b915061265c8284612613565b91508190509392505050565b7f4552433732313a207472616e736665722066726f6d20696e636f72726563742060008201527f6f776e6572000000000000000000000000000000000000000000000000000000602082015250565b60006126c4602583611abe565b91506126cf82612668565b604082019050919050565b600060208201905081810360008301526126f3816126b7565b9050919050565b7f4552433732313a207472616e7366657220746f20746865207a65726f2061646460008201527f7265737300000000000000000000000000000000000000000000000000000000602082015250565b6000612756602483611abe565b9150612761826126fa565b604082019050919050565b6000602082019050818103600083015261278581612749565b9050919050565b600061279782611b6e565b91506127a283611b6e565b9250828210156127b5576127b4612485565b5b828203905092915050565b7f4552433732313a20617070726f766520746f2063616c6c657200000000000000600082015250565b60006127f6601983611abe565b9150612801826127c0565b602082019050919050565b60006020820190508181036000830152612825816127e9565b9050919050565b7f4552433732313a207472616e7366657220746f206e6f6e20455243373231526560008201527f63656976657220696d706c656d656e7465720000000000000000000000000000602082015250565b6000612888603283611abe565b91506128938261282c565b604082019050919050565b600060208201905081810360008301526128b78161287b565b9050919050565b60006128c982611b6e565b91507fffffffffffffffffffffffffffffffffffffffffffffffffffffffffffffffff82036128fb576128fa612485565b5b600182019050919050565b7f4e487b7100000000000000000000000000000000000000000000000000000000600052601260045260246000fd5b600061294082611b6e565b915061294b83611b6e565b92508261295b5761295a612906565b5b828204905092915050565b600061297182611b6e565b915061297c83611b6e565b92508261298c5761298b612906565b5b828206905092915050565b7f4e487b7100000000000000000000000000000000000000000000000000000000600052603260045260246000fd5b600081519050919050565b600082825260208201905092915050565b60006129ed826129c6565b6129f781856129d1565b9350612a07818560208601611acf565b612a1081611b02565b840191505092915050565b6000608082019050612a306000830187611c03565b612a3d6020830186611c03565b612a4a6040830185611cec565b8181036060830152612a5c81846129e2565b905095945050505050565b600081519050612a7681611a24565b92915050565b600060208284031215612a9257612a916119ee565b5b6000612aa084828501612a67565b91505092915050565b7f4552433732313a206d696e7420746f20746865207a65726f2061646472657373600082015250565b6000612adf602083611abe565b9150612aea82612aa9565b602082019050919050565b60006020820190508181036000830152612b0e81612ad2565b9050919050565b7f4552433732313a20746f6b656e20616c7265616479206d696e74656400000000600082015250565b6000612b4b601c83611abe565b9150612b5682612b15565b602082019050919050565b60006020820190508181036000830152612b7a81612b3e565b905091905056fea26469706673582212201fc890695efaa6d8da3938870199b9a453f284075725184f52e9628b465822bf64736f6c634300080d0033",
  "immutableReferences": {},
  "source": "// contracts/CustomNFT.sol\r\n// SPDX-License-Identifier: MIT\r\npragma solidity ^0.8.0;\r\n\r\nimport \"@openzeppelin/contracts/token/ERC721/ERC721.sol\";\r\n\r\ncontract BuddyNFT is ERC721 {\r\n    struct buddyMetadata {\r\n        uint256 tokenId;\r\n        uint256 timeStamp;\r\n        string tokenURI;\r\n    }\r\n\r\n    uint256 tokenId;\r\n    mapping(address => buddyMetadata[]) public ownershipRecord;\r\n\r\n    constructor() ERC721(\"BuddyNFT\", \"BDY\") {}\r\n\r\n    function mintToken(address _ownerOfToken, string memory _tokenURI) public {\r\n        _safeMint(_ownerOfToken, tokenId);\r\n\r\n        ownershipRecord[_ownerOfToken].push(\r\n            buddyMetadata(tokenId, block.timestamp, _tokenURI)\r\n        );\r\n\r\n        tokenId += 1;\r\n    }\r\n\r\n    function getBuddiesByAddress(address _owner)\r\n        public\r\n        view\r\n        returns (buddyMetadata[] memory)\r\n    {\r\n        return ownershipRecord[_owner];\r\n    }\r\n}\r\n",
  "sourcePath": "C:\\Users\\jarancibia\\Documents\\Pruebas\\walking-buddies\\contracts\\contracts\\BuddyNFT.sol",
  "compiler": {
    "name": "solc",
    "version": "0.8.13+commit.abaa5c0e.Emscripten.clang"
  },
  "schemaVersion": "3.4.10",
  "updatedAt": "2022-10-14T13:23:25.557Z",
  "networkType": "ethereum",
  "devdoc": {
    "kind": "dev",
    "methods": {
      "approve(address,uint256)": {
        "details": "See {IERC721-approve}."
      },
      "balanceOf(address)": {
        "details": "See {IERC721-balanceOf}."
      },
      "getApproved(uint256)": {
        "details": "See {IERC721-getApproved}."
      },
      "isApprovedForAll(address,address)": {
        "details": "See {IERC721-isApprovedForAll}."
      },
      "name()": {
        "details": "See {IERC721Metadata-name}."
      },
      "ownerOf(uint256)": {
        "details": "See {IERC721-ownerOf}."
      },
      "safeTransferFrom(address,address,uint256)": {
        "details": "See {IERC721-safeTransferFrom}."
      },
      "safeTransferFrom(address,address,uint256,bytes)": {
        "details": "See {IERC721-safeTransferFrom}."
      },
      "setApprovalForAll(address,bool)": {
        "details": "See {IERC721-setApprovalForAll}."
      },
      "supportsInterface(bytes4)": {
        "details": "See {IERC165-supportsInterface}."
      },
      "symbol()": {
        "details": "See {IERC721Metadata-symbol}."
      },
      "tokenURI(uint256)": {
        "details": "See {IERC721Metadata-tokenURI}."
      },
      "transferFrom(address,address,uint256)": {
        "details": "See {IERC721-transferFrom}."
      }
    },
    "version": 1
  },
  "userdoc": {
    "kind": "user",
    "methods": {},
    "version": 1
  }
}