{
    "contractName": "CustomNFT",
    "abi": [
        {
            "inputs": [],
            "stateMutability": "nonpayable",
            "type": "constructor"
        },
        {
            "anonymous": false,
            "inputs": [
                {
                    "indexed": true,
                    "internalType": "address",
                    "name": "owner",
                    "type": "address"
                },
                {
                    "indexed": true,
                    "internalType": "address",
                    "name": "approved",
                    "type": "address"
                },
                {
                    "indexed": true,
                    "internalType": "uint256",
                    "name": "tokenId",
                    "type": "uint256"
                }
            ],
            "name": "Approval",
            "type": "event"
        },
        {
            "anonymous": false,
            "inputs": [
                {
                    "indexed": true,
                    "internalType": "address",
                    "name": "owner",
                    "type": "address"
                },
                {
                    "indexed": true,
                    "internalType": "address",
                    "name": "operator",
                    "type": "address"
                },
                {
                    "indexed": false,
                    "internalType": "bool",
                    "name": "approved",
                    "type": "bool"
                }
            ],
            "name": "ApprovalForAll",
            "type": "event"
        },
        {
            "anonymous": false,
            "inputs": [
                {
                    "indexed": true,
                    "internalType": "address",
                    "name": "from",
                    "type": "address"
                },
                {
                    "indexed": true,
                    "internalType": "address",
                    "name": "to",
                    "type": "address"
                },
                {
                    "indexed": true,
                    "internalType": "uint256",
                    "name": "tokenId",
                    "type": "uint256"
                }
            ],
            "name": "Transfer",
            "type": "event"
        },
        {
            "inputs": [
                {
                    "internalType": "address",
                    "name": "to",
                    "type": "address"
                },
                {
                    "internalType": "uint256",
                    "name": "tokenId",
                    "type": "uint256"
                }
            ],
            "name": "approve",
            "outputs": [],
            "stateMutability": "nonpayable",
            "type": "function"
        },
        {
            "inputs": [
                {
                    "internalType": "address",
                    "name": "owner",
                    "type": "address"
                }
            ],
            "name": "balanceOf",
            "outputs": [
                {
                    "internalType": "uint256",
                    "name": "",
                    "type": "uint256"
                }
            ],
            "stateMutability": "view",
            "type": "function"
        },
        {
            "inputs": [
                {
                    "internalType": "uint256",
                    "name": "tokenId",
                    "type": "uint256"
                }
            ],
            "name": "getApproved",
            "outputs": [
                {
                    "internalType": "address",
                    "name": "",
                    "type": "address"
                }
            ],
            "stateMutability": "view",
            "type": "function"
        },
        {
            "inputs": [
                {
                    "internalType": "address",
                    "name": "owner",
                    "type": "address"
                },
                {
                    "internalType": "address",
                    "name": "operator",
                    "type": "address"
                }
            ],
            "name": "isApprovedForAll",
            "outputs": [
                {
                    "internalType": "bool",
                    "name": "",
                    "type": "bool"
                }
            ],
            "stateMutability": "view",
            "type": "function"
        },
        {
            "inputs": [
                {
                    "internalType": "address",
                    "name": "user",
                    "type": "address"
                },
                {
                    "internalType": "string",
                    "name": "tokenURI",
                    "type": "string"
                }
            ],
            "name": "mintGalleryItem",
            "outputs": [
                {
                    "internalType": "uint256",
                    "name": "",
                    "type": "uint256"
                }
            ],
            "stateMutability": "nonpayable",
            "type": "function"
        },
        {
            "inputs": [],
            "name": "name",
            "outputs": [
                {
                    "internalType": "string",
                    "name": "",
                    "type": "string"
                }
            ],
            "stateMutability": "view",
            "type": "function"
        },
        {
            "inputs": [
                {
                    "internalType": "uint256",
                    "name": "tokenId",
                    "type": "uint256"
                }
            ],
            "name": "ownerOf",
            "outputs": [
                {
                    "internalType": "address",
                    "name": "",
                    "type": "address"
                }
            ],
            "stateMutability": "view",
            "type": "function"
        },
        {
            "inputs": [
                {
                    "internalType": "address",
                    "name": "from",
                    "type": "address"
                },
                {
                    "internalType": "address",
                    "name": "to",
                    "type": "address"
                },
                {
                    "internalType": "uint256",
                    "name": "tokenId",
                    "type": "uint256"
                }
            ],
            "name": "safeTransferFrom",
            "outputs": [],
            "stateMutability": "nonpayable",
            "type": "function"
        },
        {
            "inputs": [
                {
                    "internalType": "address",
                    "name": "from",
                    "type": "address"
                },
                {
                    "internalType": "address",
                    "name": "to",
                    "type": "address"
                },
                {
                    "internalType": "uint256",
                    "name": "tokenId",
                    "type": "uint256"
                },
                {
                    "internalType": "bytes",
                    "name": "data",
                    "type": "bytes"
                }
            ],
            "name": "safeTransferFrom",
            "outputs": [],
            "stateMutability": "nonpayable",
            "type": "function"
        },
        {
            "inputs": [
                {
                    "internalType": "address",
                    "name": "operator",
                    "type": "address"
                },
                {
                    "internalType": "bool",
                    "name": "approved",
                    "type": "bool"
                }
            ],
            "name": "setApprovalForAll",
            "outputs": [],
            "stateMutability": "nonpayable",
            "type": "function"
        },
        {
            "inputs": [
                {
                    "internalType": "bytes4",
                    "name": "interfaceId",
                    "type": "bytes4"
                }
            ],
            "name": "supportsInterface",
            "outputs": [
                {
                    "internalType": "bool",
                    "name": "",
                    "type": "bool"
                }
            ],
            "stateMutability": "view",
            "type": "function"
        },
        {
            "inputs": [],
            "name": "symbol",
            "outputs": [
                {
                    "internalType": "string",
                    "name": "",
                    "type": "string"
                }
            ],
            "stateMutability": "view",
            "type": "function"
        },
        {
            "inputs": [
                {
                    "internalType": "uint256",
                    "name": "tokenId",
                    "type": "uint256"
                }
            ],
            "name": "tokenURI",
            "outputs": [
                {
                    "internalType": "string",
                    "name": "",
                    "type": "string"
                }
            ],
            "stateMutability": "view",
            "type": "function"
        },
        {
            "inputs": [
                {
                    "internalType": "address",
                    "name": "from",
                    "type": "address"
                },
                {
                    "internalType": "address",
                    "name": "to",
                    "type": "address"
                },
                {
                    "internalType": "uint256",
                    "name": "tokenId",
                    "type": "uint256"
                }
            ],
            "name": "transferFrom",
            "outputs": [],
            "stateMutability": "nonpayable",
            "type": "function"
        }
    ],
    "bytecode": "60806040523480156200001157600080fd5b506040518060400160405280600b81526020016a47616c6c6572794974656d60a81b815250604051806040016040528060048152602001634749544d60e01b815250816000908162000064919062000121565b50600162000073828262000121565b505050620001ed565b634e487b7160e01b600052604160045260246000fd5b600181811c90821680620000a757607f821691505b602082108103620000c857634e487b7160e01b600052602260045260246000fd5b50919050565b601f8211156200011c57600081815260208120601f850160051c81016020861015620000f75750805b601f850160051c820191505b81811015620001185782815560010162000103565b5050505b505050565b81516001600160401b038111156200013d576200013d6200007c565b62000155816200014e845462000092565b84620000ce565b602080601f8311600181146200018d5760008415620001745750858301515b600019600386901b1c1916600185901b17855562000118565b600085815260208120601f198616915b82811015620001be578886015182559484019460019091019084016200019d565b5085821015620001dd5787850151600019600388901b60f8161c191681555b5050505050600190811b01905550565b6115d980620001fd6000396000f3fe608060405234801561001057600080fd5b50600436106100ea5760003560e01c806370a082311161008c578063b88d4fde11610066578063b88d4fde146101e1578063c87b56dd146101f4578063e985e9c514610207578063f2e8459e1461021a57600080fd5b806370a08231146101a557806395d89b41146101c6578063a22cb465146101ce57600080fd5b8063095ea7b3116100c8578063095ea7b31461015757806323b872dd1461016c57806342842e0e1461017f5780636352211e1461019257600080fd5b806301ffc9a7146100ef57806306fdde0314610117578063081812fc1461012c575b600080fd5b6101026100fd366004610f7a565b61022d565b60405190151581526020015b60405180910390f35b61011f61027f565b60405161010e9190610fe7565b61013f61013a366004610ffa565b610311565b6040516001600160a01b03909116815260200161010e565b61016a61016536600461102f565b610338565b005b61016a61017a366004611059565b610452565b61016a61018d366004611059565b610483565b61013f6101a0366004610ffa565b61049e565b6101b86101b3366004611095565b6104fe565b60405190815260200161010e565b61011f610584565b61016a6101dc3660046110b0565b610593565b61016a6101ef366004611178565b6105a2565b61011f610202366004610ffa565b6105da565b6101026102153660046111f4565b6106ea565b6101b8610228366004611227565b610718565b60006001600160e01b031982166380ac58cd60e01b148061025e57506001600160e01b03198216635b5e139f60e01b145b8061027957506301ffc9a760e01b6001600160e01b03198316145b92915050565b60606000805461028e90611289565b80601f01602080910402602001604051908101604052809291908181526020018280546102ba90611289565b80156103075780601f106102dc57610100808354040283529160200191610307565b820191906000526020600020905b8154815290600101906020018083116102ea57829003601f168201915b5050505050905090565b600061031c8261074f565b506000908152600460205260409020546001600160a01b031690565b60006103438261049e565b9050806001600160a01b0316836001600160a01b0316036103b55760405162461bcd60e51b815260206004820152602160248201527f4552433732313a20617070726f76616c20746f2063757272656e74206f776e656044820152603960f91b60648201526084015b60405180910390fd5b336001600160a01b03821614806103d157506103d181336106ea565b6104435760405162461bcd60e51b815260206004820152603e60248201527f4552433732313a20617070726f76652063616c6c6572206973206e6f7420746f60448201527f6b656e206f776e6572206e6f7220617070726f76656420666f7220616c6c000060648201526084016103ac565b61044d83836107b1565b505050565b61045c338261081f565b6104785760405162461bcd60e51b81526004016103ac906112c3565b61044d83838361087d565b61044d838383604051806020016040528060008152506105a2565b6000818152600260205260408120546001600160a01b0316806102795760405162461bcd60e51b8152602060048201526018602482015277115490cdcc8c4e881a5b9d985b1a59081d1bdad95b88125160421b60448201526064016103ac565b60006001600160a01b0382166105685760405162461bcd60e51b815260206004820152602960248201527f4552433732313a2061646472657373207a65726f206973206e6f7420612076616044820152683634b21037bbb732b960b91b60648201526084016103ac565b506001600160a01b031660009081526003602052604090205490565b60606001805461028e90611289565b61059e338383610a19565b5050565b6105ac338361081f565b6105c85760405162461bcd60e51b81526004016103ac906112c3565b6105d484848484610ae7565b50505050565b60606105e58261074f565b600082815260066020526040812080546105fe90611289565b80601f016020809104026020016040519081016040528092919081815260200182805461062a90611289565b80156106775780601f1061064c57610100808354040283529160200191610677565b820191906000526020600020905b81548152906001019060200180831161065a57829003601f168201915b50505050509050600061069560408051602081019091526000815290565b905080516000036106a7575092915050565b8151156106d95780826040516020016106c1929190611311565b60405160208183030381529060405292505050919050565b6106e284610b1a565b949350505050565b6001600160a01b03918216600090815260056020908152604080832093909416825291909152205460ff1690565b60008061072460075490565b90506107308482610b8d565b61073a8184610ccf565b610748600780546001019055565b9392505050565b6000818152600260205260409020546001600160a01b03166107ae5760405162461bcd60e51b8152602060048201526018602482015277115490cdcc8c4e881a5b9d985b1a59081d1bdad95b88125160421b60448201526064016103ac565b50565b600081815260046020526040902080546001600160a01b0319166001600160a01b03841690811790915581906107e68261049e565b6001600160a01b03167f8c5be1e5ebec7d5bd14f71427d1e84f3dd0314c0f7b2291e5b200ac8c7c3b92560405160405180910390a45050565b60008061082b8361049e565b9050806001600160a01b0316846001600160a01b03161480610852575061085281856106ea565b806106e25750836001600160a01b031661086b84610311565b6001600160a01b031614949350505050565b826001600160a01b03166108908261049e565b6001600160a01b0316146108f45760405162461bcd60e51b815260206004820152602560248201527f4552433732313a207472616e736665722066726f6d20696e636f72726563742060448201526437bbb732b960d91b60648201526084016103ac565b6001600160a01b0382166109565760405162461bcd60e51b8152602060048201526024808201527f4552433732313a207472616e7366657220746f20746865207a65726f206164646044820152637265737360e01b60648201526084016103ac565b6109616000826107b1565b6001600160a01b038316600090815260036020526040812080546001929061098a908490611356565b90915550506001600160a01b03821660009081526003602052604081208054600192906109b8908490611369565b909155505060008181526002602052604080822080546001600160a01b0319166001600160a01b0386811691821790925591518493918716917fddf252ad1be2c89b69c2b068fc378daa952ba7f163c4a11628f55a4df523b3ef91a4505050565b816001600160a01b0316836001600160a01b031603610a7a5760405162461bcd60e51b815260206004820152601960248201527f4552433732313a20617070726f766520746f2063616c6c65720000000000000060448201526064016103ac565b6001600160a01b03838116600081815260056020908152604080832094871680845294825291829020805460ff191686151590811790915591519182527f17307eab39ab6107e8899845ad3d59bd9653f200f220920489ca2b5937696c31910160405180910390a3505050565b610af284848461087d565b610afe84848484610d62565b6105d45760405162461bcd60e51b81526004016103ac9061137c565b6060610b258261074f565b6000610b3c60408051602081019091526000815290565b90506000815111610b5c5760405180602001604052806000815250610748565b80610b6684610e63565b604051602001610b77929190611311565b6040516020818303038152906040529392505050565b6001600160a01b038216610be35760405162461bcd60e51b815260206004820181905260248201527f4552433732313a206d696e7420746f20746865207a65726f206164647265737360448201526064016103ac565b6000818152600260205260409020546001600160a01b031615610c485760405162461bcd60e51b815260206004820152601c60248201527f4552433732313a20746f6b656e20616c7265616479206d696e7465640000000060448201526064016103ac565b6001600160a01b0382166000908152600360205260408120805460019290610c71908490611369565b909155505060008181526002602052604080822080546001600160a01b0319166001600160a01b03861690811790915590518392907fddf252ad1be2c89b69c2b068fc378daa952ba7f163c4a11628f55a4df523b3ef908290a45050565b6000828152600260205260409020546001600160a01b0316610d4a5760405162461bcd60e51b815260206004820152602e60248201527f45524337323155524953746f726167653a2055524920736574206f66206e6f6e60448201526d32bc34b9ba32b73a103a37b5b2b760911b60648201526084016103ac565b600082815260066020526040902061044d828261141c565b60006001600160a01b0384163b15610e5857604051630a85bd0160e11b81526001600160a01b0385169063150b7a0290610da69033908990889088906004016114dc565b6020604051808303816000875af1925050508015610de1575060408051601f3d908101601f19168201909252610dde91810190611519565b60015b610e3e573d808015610e0f576040519150601f19603f3d011682016040523d82523d6000602084013e610e14565b606091505b508051600003610e365760405162461bcd60e51b81526004016103ac9061137c565b805181602001fd5b6001600160e01b031916630a85bd0160e11b1490506106e2565b506001949350505050565b606081600003610e8a5750506040805180820190915260018152600360fc1b602082015290565b8160005b8115610eb45780610e9e81611536565b9150610ead9050600a83611565565b9150610e8e565b60008167ffffffffffffffff811115610ecf57610ecf6110ec565b6040519080825280601f01601f191660200182016040528015610ef9576020820181803683370190505b5090505b84156106e257610f0e600183611356565b9150610f1b600a86611579565b610f26906030611369565b60f81b818381518110610f3b57610f3b61158d565b60200101906001600160f81b031916908160001a905350610f5d600a86611565565b9450610efd565b6001600160e01b0319811681146107ae57600080fd5b600060208284031215610f8c57600080fd5b813561074881610f64565b60005b83811015610fb2578181015183820152602001610f9a565b50506000910152565b60008151808452610fd3816020860160208601610f97565b601f01601f19169290920160200192915050565b6020815260006107486020830184610fbb565b60006020828403121561100c57600080fd5b5035919050565b80356001600160a01b038116811461102a57600080fd5b919050565b6000806040838503121561104257600080fd5b61104b83611013565b946020939093013593505050565b60008060006060848603121561106e57600080fd5b61107784611013565b925061108560208501611013565b9150604084013590509250925092565b6000602082840312156110a757600080fd5b61074882611013565b600080604083850312156110c357600080fd5b6110cc83611013565b9150602083013580151581146110e157600080fd5b809150509250929050565b634e487b7160e01b600052604160045260246000fd5b600067ffffffffffffffff8084111561111d5761111d6110ec565b604051601f8501601f19908116603f01168101908282118183101715611145576111456110ec565b8160405280935085815286868601111561115e57600080fd5b858560208301376000602087830101525050509392505050565b6000806000806080858703121561118e57600080fd5b61119785611013565b93506111a560208601611013565b925060408501359150606085013567ffffffffffffffff8111156111c857600080fd5b8501601f810187136111d957600080fd5b6111e887823560208401611102565b91505092959194509250565b6000806040838503121561120757600080fd5b61121083611013565b915061121e60208401611013565b90509250929050565b6000806040838503121561123a57600080fd5b61124383611013565b9150602083013567ffffffffffffffff81111561125f57600080fd5b8301601f8101851361127057600080fd5b61127f85823560208401611102565b9150509250929050565b600181811c9082168061129d57607f821691505b6020821081036112bd57634e487b7160e01b600052602260045260246000fd5b50919050565b6020808252602e908201527f4552433732313a2063616c6c6572206973206e6f7420746f6b656e206f776e6560408201526d1c881b9bdc88185c1c1c9bdd995960921b606082015260800190565b60008351611323818460208801610f97565b835190830190611337818360208801610f97565b01949350505050565b634e487b7160e01b600052601160045260246000fd5b8181038181111561027957610279611340565b8082018082111561027957610279611340565b60208082526032908201527f4552433732313a207472616e7366657220746f206e6f6e20455243373231526560408201527131b2b4bb32b91034b6b83632b6b2b73a32b960711b606082015260800190565b601f82111561044d57600081815260208120601f850160051c810160208610156113f55750805b601f850160051c820191505b8181101561141457828155600101611401565b505050505050565b815167ffffffffffffffff811115611436576114366110ec565b61144a816114448454611289565b846113ce565b602080601f83116001811461147f57600084156114675750858301515b600019600386901b1c1916600185901b178555611414565b600085815260208120601f198616915b828110156114ae5788860151825594840194600190910190840161148f565b50858210156114cc5787850151600019600388901b60f8161c191681555b5050505050600190811b01905550565b6001600160a01b038581168252841660208201526040810183905260806060820181905260009061150f90830184610fbb565b9695505050505050565b60006020828403121561152b57600080fd5b815161074881610f64565b60006001820161154857611548611340565b5060010190565b634e487b7160e01b600052601260045260246000fd5b6000826115745761157461154f565b500490565b6000826115885761158861154f565b500690565b634e487b7160e01b600052603260045260246000fdfea26469706673582212208dbff51595078bd3d5141f0e973f6f15ce5631fe9388b8e48475f30b800fb01264736f6c63430008110033",
    "sourcePath": "c:/Users/Juan/Documents/Proyectos/Practica/contracts/contracts/CustomNFT.sol",
    "compiler": {
        "name": "solc",
        "version": "0.8.17+commit.8df45f5f"
    },
    "functionHashes": {
        "approve(address,uint256)": "095ea7b3",
        "balanceOf(address)": "70a08231",
        "getApproved(uint256)": "081812fc",
        "isApprovedForAll(address,address)": "e985e9c5",
        "mintGalleryItem(address,string)": "f2e8459e",
        "name()": "06fdde03",
        "ownerOf(uint256)": "6352211e",
        "safeTransferFrom(address,address,uint256)": "42842e0e",
        "safeTransferFrom(address,address,uint256,bytes)": "b88d4fde",
        "setApprovalForAll(address,bool)": "a22cb465",
        "supportsInterface(bytes4)": "01ffc9a7",
        "symbol()": "95d89b41",
        "tokenURI(uint256)": "c87b56dd",
        "transferFrom(address,address,uint256)": "23b872dd"
    },
    "gasEstimates": {
        "creation": {
            "codeDepositCost": "1118600",
            "executionCost": "infinite",
            "totalCost": "infinite"
        },
        "external": {
            "approve(address,uint256)": "infinite",
            "balanceOf(address)": "2612",
            "getApproved(uint256)": "4792",
            "isApprovedForAll(address,address)": "infinite",
            "mintGalleryItem(address,string)": "infinite",
            "name()": "infinite",
            "ownerOf(uint256)": "2627",
            "safeTransferFrom(address,address,uint256)": "infinite",
            "safeTransferFrom(address,address,uint256,bytes)": "infinite",
            "setApprovalForAll(address,bool)": "26750",
            "supportsInterface(bytes4)": "534",
            "symbol()": "infinite",
            "tokenURI(uint256)": "infinite",
            "transferFrom(address,address,uint256)": "infinite"
        }
    }
}